{
	"_format": "hh-sol-artifact-1",
	"contractName": "NFT",
	"sourceName": "contracts/GanjaGangNFT.sol",
	"abi": [
		{
			"inputs": [],
			"stateMutability": "nonpayable",
			"type": "constructor"
		},
		{
			"anonymous": false,
			"inputs": [
				{
					"indexed": true,
					"internalType": "address",
					"name": "owner",
					"type": "address"
				},
				{
					"indexed": true,
					"internalType": "address",
					"name": "approved",
					"type": "address"
				},
				{
					"indexed": true,
					"internalType": "uint256",
					"name": "tokenId",
					"type": "uint256"
				}
			],
			"name": "Approval",
			"type": "event"
		},
		{
			"anonymous": false,
			"inputs": [
				{
					"indexed": true,
					"internalType": "address",
					"name": "owner",
					"type": "address"
				},
				{
					"indexed": true,
					"internalType": "address",
					"name": "operator",
					"type": "address"
				},
				{
					"indexed": false,
					"internalType": "bool",
					"name": "approved",
					"type": "bool"
				}
			],
			"name": "ApprovalForAll",
			"type": "event"
		},
		{
			"anonymous": false,
			"inputs": [
				{
					"indexed": true,
					"internalType": "address",
					"name": "previousOwner",
					"type": "address"
				},
				{
					"indexed": true,
					"internalType": "address",
					"name": "newOwner",
					"type": "address"
				}
			],
			"name": "OwnershipTransferred",
			"type": "event"
		},
		{
			"anonymous": false,
			"inputs": [
				{
					"indexed": true,
					"internalType": "address",
					"name": "from",
					"type": "address"
				},
				{
					"indexed": true,
					"internalType": "address",
					"name": "to",
					"type": "address"
				},
				{
					"indexed": true,
					"internalType": "uint256",
					"name": "tokenId",
					"type": "uint256"
				}
			],
			"name": "Transfer",
			"type": "event"
		},
		{
			"inputs": [],
			"name": "MAX_MINT_PER_TX",
			"outputs": [
				{
					"internalType": "uint256",
					"name": "",
					"type": "uint256"
				}
			],
			"stateMutability": "view",
			"type": "function"
		},
		{
			"inputs": [],
			"name": "MAX_TOKENS",
			"outputs": [
				{
					"internalType": "uint256",
					"name": "",
					"type": "uint256"
				}
			],
			"stateMutability": "view",
			"type": "function"
		},
		{
			"inputs": [
				{
					"internalType": "address",
					"name": "to",
					"type": "address"
				},
				{
					"internalType": "uint256",
					"name": "tokenId",
					"type": "uint256"
				}
			],
			"name": "approve",
			"outputs": [],
			"stateMutability": "nonpayable",
			"type": "function"
		},
		{
			"inputs": [
				{
					"internalType": "address",
					"name": "owner",
					"type": "address"
				}
			],
			"name": "balanceOf",
			"outputs": [
				{
					"internalType": "uint256",
					"name": "",
					"type": "uint256"
				}
			],
			"stateMutability": "view",
			"type": "function"
		},
		{
			"inputs": [],
			"name": "baseExtension",
			"outputs": [
				{
					"internalType": "string",
					"name": "",
					"type": "string"
				}
			],
			"stateMutability": "view",
			"type": "function"
		},
		{
			"inputs": [],
			"name": "baseUri",
			"outputs": [
				{
					"internalType": "string",
					"name": "",
					"type": "string"
				}
			],
			"stateMutability": "view",
			"type": "function"
		},
		{
			"inputs": [],
			"name": "flipSaleState",
			"outputs": [],
			"stateMutability": "nonpayable",
			"type": "function"
		},
		{
			"inputs": [
				{
					"internalType": "uint256",
					"name": "tokenId",
					"type": "uint256"
				}
			],
			"name": "getApproved",
			"outputs": [
				{
					"internalType": "address",
					"name": "",
					"type": "address"
				}
			],
			"stateMutability": "view",
			"type": "function"
		},
		{
			"inputs": [
				{
					"internalType": "address",
					"name": "owner",
					"type": "address"
				},
				{
					"internalType": "address",
					"name": "operator",
					"type": "address"
				}
			],
			"name": "isApprovedForAll",
			"outputs": [
				{
					"internalType": "bool",
					"name": "",
					"type": "bool"
				}
			],
			"stateMutability": "view",
			"type": "function"
		},
		{
			"inputs": [],
			"name": "isSaleActive",
			"outputs": [
				{
					"internalType": "bool",
					"name": "",
					"type": "bool"
				}
			],
			"stateMutability": "view",
			"type": "function"
		},
		{
			"inputs": [
				{
					"internalType": "uint256",
					"name": "_numTokens",
					"type": "uint256"
				}
			],
			"name": "mint",
			"outputs": [],
			"stateMutability": "payable",
			"type": "function"
		},
		{
			"inputs": [],
			"name": "name",
			"outputs": [
				{
					"internalType": "string",
					"name": "",
					"type": "string"
				}
			],
			"stateMutability": "view",
			"type": "function"
		},
		{
			"inputs": [],
			"name": "owner",
			"outputs": [
				{
					"internalType": "address",
					"name": "",
					"type": "address"
				}
			],
			"stateMutability": "view",
			"type": "function"
		},
		{
			"inputs": [
				{
					"internalType": "uint256",
					"name": "tokenId",
					"type": "uint256"
				}
			],
			"name": "ownerOf",
			"outputs": [
				{
					"internalType": "address",
					"name": "",
					"type": "address"
				}
			],
			"stateMutability": "view",
			"type": "function"
		},
		{
			"inputs": [],
			"name": "price",
			"outputs": [
				{
					"internalType": "uint256",
					"name": "",
					"type": "uint256"
				}
			],
			"stateMutability": "view",
			"type": "function"
		},
		{
			"inputs": [],
			"name": "renounceOwnership",
			"outputs": [],
			"stateMutability": "nonpayable",
			"type": "function"
		},
		{
			"inputs": [
				{
					"internalType": "address",
					"name": "from",
					"type": "address"
				},
				{
					"internalType": "address",
					"name": "to",
					"type": "address"
				},
				{
					"internalType": "uint256",
					"name": "tokenId",
					"type": "uint256"
				}
			],
			"name": "safeTransferFrom",
			"outputs": [],
			"stateMutability": "nonpayable",
			"type": "function"
		},
		{
			"inputs": [
				{
					"internalType": "address",
					"name": "from",
					"type": "address"
				},
				{
					"internalType": "address",
					"name": "to",
					"type": "address"
				},
				{
					"internalType": "uint256",
					"name": "tokenId",
					"type": "uint256"
				},
				{
					"internalType": "bytes",
					"name": "data",
					"type": "bytes"
				}
			],
			"name": "safeTransferFrom",
			"outputs": [],
			"stateMutability": "nonpayable",
			"type": "function"
		},
		{
			"inputs": [
				{
					"internalType": "address",
					"name": "operator",
					"type": "address"
				},
				{
					"internalType": "bool",
					"name": "approved",
					"type": "bool"
				}
			],
			"name": "setApprovalForAll",
			"outputs": [],
			"stateMutability": "nonpayable",
			"type": "function"
		},
		{
			"inputs": [
				{
					"internalType": "string",
					"name": "_baseUri",
					"type": "string"
				}
			],
			"name": "setBaseUri",
			"outputs": [],
			"stateMutability": "nonpayable",
			"type": "function"
		},
		{
			"inputs": [
				{
					"internalType": "uint256",
					"name": "_price",
					"type": "uint256"
				}
			],
			"name": "setPrice",
			"outputs": [],
			"stateMutability": "nonpayable",
			"type": "function"
		},
		{
			"inputs": [
				{
					"internalType": "bytes4",
					"name": "interfaceId",
					"type": "bytes4"
				}
			],
			"name": "supportsInterface",
			"outputs": [
				{
					"internalType": "bool",
					"name": "",
					"type": "bool"
				}
			],
			"stateMutability": "view",
			"type": "function"
		},
		{
			"inputs": [],
			"name": "symbol",
			"outputs": [
				{
					"internalType": "string",
					"name": "",
					"type": "string"
				}
			],
			"stateMutability": "view",
			"type": "function"
		},
		{
			"inputs": [
				{
					"internalType": "uint256",
					"name": "tokenId",
					"type": "uint256"
				}
			],
			"name": "tokenURI",
			"outputs": [
				{
					"internalType": "string",
					"name": "",
					"type": "string"
				}
			],
			"stateMutability": "view",
			"type": "function"
		},
		{
			"inputs": [],
			"name": "totalSupply",
			"outputs": [
				{
					"internalType": "uint256",
					"name": "",
					"type": "uint256"
				}
			],
			"stateMutability": "view",
			"type": "function"
		},
		{
			"inputs": [
				{
					"internalType": "address",
					"name": "from",
					"type": "address"
				},
				{
					"internalType": "address",
					"name": "to",
					"type": "address"
				},
				{
					"internalType": "uint256",
					"name": "tokenId",
					"type": "uint256"
				}
			],
			"name": "transferFrom",
			"outputs": [],
			"stateMutability": "nonpayable",
			"type": "function"
		},
		{
			"inputs": [
				{
					"internalType": "address",
					"name": "newOwner",
					"type": "address"
				}
			],
			"name": "transferOwnership",
			"outputs": [],
			"stateMutability": "nonpayable",
			"type": "function"
		},
		{
			"inputs": [],
			"name": "withdrawAll",
			"outputs": [],
			"stateMutability": "payable",
			"type": "function"
		}
	],
	"bytecode": "0x67011c37937e08000060075560c06040526005608081905264173539b7b760d91b60a09081526200003491600c91906200052c565b503480156200004257600080fd5b50604080518082018252600a81526947616e6a612047616e6760b01b60208083019182528351808501909452600384526244573360e81b90840152815191929162000090916000916200052c565b508051620000a69060019060208401906200052c565b505050620000c3620000bd6200012b60201b60201c565b6200012f565b604051806080016040528060438152602001620024ba604391398051620000f391600b916020909101906200052c565b5060015b600481116200011f576200010c338262000181565b6200011781620005d2565b9050620000f7565b506004600955620006e7565b3390565b600680546001600160a01b038381166001600160a01b0319831681179093556040519116919082907f8be0079c531659141344cd1fd0a4f28419497f9722a3daafe3b4186f6b6457e090600090a35050565b620001a3828260405180602001604052806000815250620001a760201b60201c565b5050565b620001b3838362000223565b620001c26000848484620003b4565b6200021e5760405162461bcd60e51b815260206004820152603260248201526000805160206200249a83398151915260448201527131b2b4bb32b91034b6b83632b6b2b73a32b960711b60648201526084015b60405180910390fd5b505050565b6001600160a01b0382166200027b5760405162461bcd60e51b815260206004820181905260248201527f4552433732313a206d696e7420746f20746865207a65726f2061646472657373604482015260640162000215565b6000818152600260205260409020546001600160a01b031615620002e25760405162461bcd60e51b815260206004820152601c60248201527f4552433732313a20746f6b656e20616c7265616479206d696e74656400000000604482015260640162000215565b6000818152600260205260409020546001600160a01b031615620003495760405162461bcd60e51b815260206004820152601c60248201527f4552433732313a20746f6b656e20616c7265616479206d696e74656400000000604482015260640162000215565b6001600160a01b038216600081815260036020908152604080832080546001019055848352600290915280822080546001600160a01b0319168417905551839291907fddf252ad1be2c89b69c2b068fc378daa952ba7f163c4a11628f55a4df523b3ef908290a45050565b6000620003d5846001600160a01b03166200051d60201b62000e231760201c565b156200051157604051630a85bd0160e11b81526001600160a01b0385169063150b7a02906200040f903390899088908890600401620005fc565b602060405180830381600087803b1580156200042a57600080fd5b505af19250505080156200045d575060408051601f3d908101601f191682019092526200045a9181019062000677565b60015b620004f6573d8080156200048e576040519150601f19603f3d011682016040523d82523d6000602084013e62000493565b606091505b508051620004ee5760405162461bcd60e51b815260206004820152603260248201526000805160206200249a83398151915260448201527131b2b4bb32b91034b6b83632b6b2b73a32b960711b606482015260840162000215565b805181602001fd5b6001600160e01b031916630a85bd0160e11b14905062000515565b5060015b949350505050565b6001600160a01b03163b151590565b8280546200053a90620006aa565b90600052602060002090601f0160209004810192826200055e5760008555620005a9565b82601f106200057957805160ff1916838001178555620005a9565b82800160010185558215620005a9579182015b82811115620005a95782518255916020019190600101906200058c565b50620005b7929150620005bb565b5090565b5b80821115620005b75760008155600101620005bc565b6000600019821415620005f557634e487b7160e01b600052601160045260246000fd5b5060010190565b600060018060a01b038087168352602081871681850152856040850152608060608501528451915081608085015260005b828110156200064b5785810182015185820160a0015281016200062d565b828111156200065e57600060a084870101525b5050601f01601f19169190910160a00195945050505050565b6000602082840312156200068a57600080fd5b81516001600160e01b031981168114620006a357600080fd5b9392505050565b600181811c90821680620006bf57607f821691505b60208210811415620006e157634e487b7160e01b600052602260045260246000fd5b50919050565b611da380620006f76000396000f3fe6080604052600436106101b75760003560e01c80638ecad721116100ec578063a22cb4651161008a578063c87b56dd11610064578063c87b56dd14610478578063e985e9c514610498578063f2fde38b146104e1578063f47c84c51461050157600080fd5b8063a22cb46514610423578063b88d4fde14610443578063c66828621461046357600080fd5b80639abc8320116100c65780639abc8320146103c5578063a035b1fe146103da578063a0712d68146103f0578063a0bcfc7f1461040357600080fd5b80638ecad7211461037b57806391b7f5ed1461039057806395d89b41146103b057600080fd5b806342842e0e1161015957806370a082311161013357806370a0823114610320578063715018a614610340578063853828b6146103555780638da5cb5b1461035d57600080fd5b806342842e0e146102c6578063564566a8146102e65780636352211e1461030057600080fd5b8063095ea7b311610195578063095ea7b31461024b57806318160ddd1461026d57806323b872dd1461029157806334918dfd146102b157600080fd5b806301ffc9a7146101bc57806306fdde03146101f1578063081812fc14610213575b600080fd5b3480156101c857600080fd5b506101dc6101d73660046117a8565b610517565b60405190151581526020015b60405180910390f35b3480156101fd57600080fd5b50610206610569565b6040516101e8919061181d565b34801561021f57600080fd5b5061023361022e366004611830565b6105fb565b6040516001600160a01b0390911681526020016101e8565b34801561025757600080fd5b5061026b610266366004611865565b610622565b005b34801561027957600080fd5b5061028360095481565b6040519081526020016101e8565b34801561029d57600080fd5b5061026b6102ac36600461188f565b61073d565b3480156102bd57600080fd5b5061026b61076e565b3480156102d257600080fd5b5061026b6102e136600461188f565b61078a565b3480156102f257600080fd5b506008546101dc9060ff1681565b34801561030c57600080fd5b5061023361031b366004611830565b6107a5565b34801561032c57600080fd5b5061028361033b3660046118cb565b610805565b34801561034c57600080fd5b5061026b61088b565b61026b61089f565b34801561036957600080fd5b506006546001600160a01b0316610233565b34801561038757600080fd5b50610283600a81565b34801561039c57600080fd5b5061026b6103ab366004611830565b610962565b3480156103bc57600080fd5b5061020661096f565b3480156103d157600080fd5b5061020661097e565b3480156103e657600080fd5b5061028360075481565b61026b6103fe366004611830565b610a0c565b34801561040f57600080fd5b5061026b61041e366004611972565b610c5d565b34801561042f57600080fd5b5061026b61043e3660046119bb565b610c7c565b34801561044f57600080fd5b5061026b61045e3660046119f7565b610c87565b34801561046f57600080fd5b50610206610cbf565b34801561048457600080fd5b50610206610493366004611830565b610ccc565b3480156104a457600080fd5b506101dc6104b3366004611a73565b6001600160a01b03918216600090815260056020908152604080832093909416825291909152205460ff1690565b3480156104ed57600080fd5b5061026b6104fc3660046118cb565b610daa565b34801561050d57600080fd5b5061028361106881565b60006001600160e01b031982166380ac58cd60e01b148061054857506001600160e01b03198216635b5e139f60e01b145b8061056357506301ffc9a760e01b6001600160e01b03198316145b92915050565b60606000805461057890611aa6565b80601f01602080910402602001604051908101604052809291908181526020018280546105a490611aa6565b80156105f15780601f106105c6576101008083540402835291602001916105f1565b820191906000526020600020905b8154815290600101906020018083116105d457829003601f168201915b5050505050905090565b600061060682610e32565b506000908152600460205260409020546001600160a01b031690565b600061062d826107a5565b9050806001600160a01b0316836001600160a01b031614156106a05760405162461bcd60e51b815260206004820152602160248201527f4552433732313a20617070726f76616c20746f2063757272656e74206f776e656044820152603960f91b60648201526084015b60405180910390fd5b336001600160a01b03821614806106bc57506106bc81336104b3565b61072e5760405162461bcd60e51b815260206004820152603d60248201527f4552433732313a20617070726f76652063616c6c6572206973206e6f7420746f60448201527f6b656e206f776e6572206f7220617070726f76656420666f7220616c6c0000006064820152608401610697565b6107388383610e91565b505050565b6107473382610eff565b6107635760405162461bcd60e51b815260040161069790611ae1565b610738838383610f7e565b6107766110e2565b6008805460ff19811660ff90911615179055565b61073883838360405180602001604052806000815250610c87565b6000818152600260205260408120546001600160a01b0316806105635760405162461bcd60e51b8152602060048201526018602482015277115490cdcc8c4e881a5b9d985b1a59081d1bdad95b88125160421b6044820152606401610697565b60006001600160a01b03821661086f5760405162461bcd60e51b815260206004820152602960248201527f4552433732313a2061646472657373207a65726f206973206e6f7420612076616044820152683634b21037bbb732b960b91b6064820152608401610697565b506001600160a01b031660009081526003602052604090205490565b6108936110e2565b61089d600061113c565b565b6108a76110e2565b47600060646108b68382611b44565b6108c09190611b63565b604051909150600090738922629c113eb8e04db87080cc2006fd4f9f2e9e9083908381818185875af1925050503d8060008114610919576040519150601f19603f3d011682016040523d82523d6000602084013e61091e565b606091505b50509050806107385760405162461bcd60e51b815260206004820152601060248201526f2a3930b739b332b9103330b4b632b21760811b6044820152606401610697565b61096a6110e2565b600755565b60606001805461057890611aa6565b600b805461098b90611aa6565b80601f01602080910402602001604051908101604052809291908181526020018280546109b790611aa6565b8015610a045780601f106109d957610100808354040283529160200191610a04565b820191906000526020600020905b8154815290600101906020018083116109e757829003601f168201915b505050505081565b60085460ff16610a545760405162461bcd60e51b81526020600482015260136024820152722a34329039b0b6329034b9903830bab9b2b21760691b6044820152606401610697565b600a811115610acb5760405162461bcd60e51b815260206004820152603760248201527f596f752063616e206f6e6c79206d696e742061206d6178696d756d206f66203160448201527f30204e46547320706572207472616e73616374696f6e2e0000000000000000006064820152608401610697565b336000908152600a6020819052604090912054610ae9908390611b85565b1115610b375760405162461bcd60e51b815260206004820181905260248201527f596f752063616e206f6e6c79206d696e74203130207065722077616c6c65742e6044820152606401610697565b600954611068610b478383611b85565b1115610b825760405162461bcd60e51b815260206004820152600a6024820152694d41585f544f4b454e5360b01b6044820152606401610697565b3460075483610b919190611b44565b1115610bee5760405162461bcd60e51b815260206004820152602660248201527f496e73756666696369656e742066756e64732e20596f75206e656564206d6f7260448201526565204554482160d01b6064820152608401610697565b60015b828111610c1b57610c0b33610c068385611b85565b61118e565b610c1481611b9d565b9050610bf1565b50336000908152600a602052604081208054849290610c3b908490611b85565b925050819055508160096000828254610c549190611b85565b90915550505050565b610c656110e2565b8051610c7890600b9060208401906116f9565b5050565b610c783383836111a8565b610c913383610eff565b610cad5760405162461bcd60e51b815260040161069790611ae1565b610cb984848484611277565b50505050565b600c805461098b90611aa6565b6000818152600260205260409020546060906001600160a01b0316610d4b5760405162461bcd60e51b815260206004820152602f60248201527f4552433732314d657461646174613a2055524920717565727920666f72206e6f60448201526e3732bc34b9ba32b73a103a37b5b2b760891b6064820152608401610697565b6000610d556112aa565b90506000815111610d755760405180602001604052806000815250610da3565b80610d7f846112b9565b600c604051602001610d9393929190611bb8565b6040516020818303038152906040525b9392505050565b610db26110e2565b6001600160a01b038116610e175760405162461bcd60e51b815260206004820152602660248201527f4f776e61626c653a206e6577206f776e657220697320746865207a65726f206160448201526564647265737360d01b6064820152608401610697565b610e208161113c565b50565b6001600160a01b03163b151590565b6000818152600260205260409020546001600160a01b0316610e205760405162461bcd60e51b8152602060048201526018602482015277115490cdcc8c4e881a5b9d985b1a59081d1bdad95b88125160421b6044820152606401610697565b600081815260046020526040902080546001600160a01b0319166001600160a01b0384169081179091558190610ec6826107a5565b6001600160a01b03167f8c5be1e5ebec7d5bd14f71427d1e84f3dd0314c0f7b2291e5b200ac8c7c3b92560405160405180910390a45050565b600080610f0b836107a5565b9050806001600160a01b0316846001600160a01b03161480610f5257506001600160a01b0380821660009081526005602090815260408083209388168352929052205460ff165b80610f765750836001600160a01b0316610f6b846105fb565b6001600160a01b0316145b949350505050565b826001600160a01b0316610f91826107a5565b6001600160a01b031614610fb75760405162461bcd60e51b815260040161069790611c7c565b6001600160a01b0382166110195760405162461bcd60e51b8152602060048201526024808201527f4552433732313a207472616e7366657220746f20746865207a65726f206164646044820152637265737360e01b6064820152608401610697565b826001600160a01b031661102c826107a5565b6001600160a01b0316146110525760405162461bcd60e51b815260040161069790611c7c565b600081815260046020908152604080832080546001600160a01b03199081169091556001600160a01b0387811680865260038552838620805460001901905590871680865283862080546001019055868652600290945282852080549092168417909155905184937fddf252ad1be2c89b69c2b068fc378daa952ba7f163c4a11628f55a4df523b3ef91a4505050565b6006546001600160a01b0316331461089d5760405162461bcd60e51b815260206004820181905260248201527f4f776e61626c653a2063616c6c6572206973206e6f7420746865206f776e65726044820152606401610697565b600680546001600160a01b038381166001600160a01b0319831681179093556040519116919082907f8be0079c531659141344cd1fd0a4f28419497f9722a3daafe3b4186f6b6457e090600090a35050565b610c78828260405180602001604052806000815250611356565b816001600160a01b0316836001600160a01b0316141561120a5760405162461bcd60e51b815260206004820152601960248201527f4552433732313a20617070726f766520746f2063616c6c6572000000000000006044820152606401610697565b6001600160a01b03838116600081815260056020908152604080832094871680845294825291829020805460ff191686151590811790915591519182527f17307eab39ab6107e8899845ad3d59bd9653f200f220920489ca2b5937696c31910160405180910390a3505050565b611282848484610f7e565b61128e84848484611389565b610cb95760405162461bcd60e51b815260040161069790611cc1565b6060600b805461057890611aa6565b606060006112c683611496565b600101905060008167ffffffffffffffff8111156112e6576112e66118e6565b6040519080825280601f01601f191660200182016040528015611310576020820181803683370190505b5090508181016020015b600019016f181899199a1a9b1b9c1cb0b131b232b360811b600a86061a8153600a85049450846113495761134e565b61131a565b509392505050565b611360838361156e565b61136d6000848484611389565b6107385760405162461bcd60e51b815260040161069790611cc1565b60006001600160a01b0384163b1561148b57604051630a85bd0160e11b81526001600160a01b0385169063150b7a02906113cd903390899088908890600401611d13565b602060405180830381600087803b1580156113e757600080fd5b505af1925050508015611417575060408051601f3d908101601f1916820190925261141491810190611d50565b60015b611471573d808015611445576040519150601f19603f3d011682016040523d82523d6000602084013e61144a565b606091505b5080516114695760405162461bcd60e51b815260040161069790611cc1565b805181602001fd5b6001600160e01b031916630a85bd0160e11b149050610f76565b506001949350505050565b60008072184f03e93ff9f4daa797ed6e38ed64bf6a1f0160401b83106114d55772184f03e93ff9f4daa797ed6e38ed64bf6a1f0160401b830492506040015b6d04ee2d6d415b85acef81000000008310611501576d04ee2d6d415b85acef8100000000830492506020015b662386f26fc10000831061151f57662386f26fc10000830492506010015b6305f5e1008310611537576305f5e100830492506008015b612710831061154b57612710830492506004015b6064831061155d576064830492506002015b600a83106105635760010192915050565b6001600160a01b0382166115c45760405162461bcd60e51b815260206004820181905260248201527f4552433732313a206d696e7420746f20746865207a65726f20616464726573736044820152606401610697565b6000818152600260205260409020546001600160a01b0316156116295760405162461bcd60e51b815260206004820152601c60248201527f4552433732313a20746f6b656e20616c7265616479206d696e746564000000006044820152606401610697565b6000818152600260205260409020546001600160a01b03161561168e5760405162461bcd60e51b815260206004820152601c60248201527f4552433732313a20746f6b656e20616c7265616479206d696e746564000000006044820152606401610697565b6001600160a01b038216600081815260036020908152604080832080546001019055848352600290915280822080546001600160a01b0319168417905551839291907fddf252ad1be2c89b69c2b068fc378daa952ba7f163c4a11628f55a4df523b3ef908290a45050565b82805461170590611aa6565b90600052602060002090601f016020900481019282611727576000855561176d565b82601f1061174057805160ff191683800117855561176d565b8280016001018555821561176d579182015b8281111561176d578251825591602001919060010190611752565b5061177992915061177d565b5090565b5b80821115611779576000815560010161177e565b6001600160e01b031981168114610e2057600080fd5b6000602082840312156117ba57600080fd5b8135610da381611792565b60005b838110156117e05781810151838201526020016117c8565b83811115610cb95750506000910152565b600081518084526118098160208601602086016117c5565b601f01601f19169290920160200192915050565b602081526000610da360208301846117f1565b60006020828403121561184257600080fd5b5035919050565b80356001600160a01b038116811461186057600080fd5b919050565b6000806040838503121561187857600080fd5b61188183611849565b946020939093013593505050565b6000806000606084860312156118a457600080fd5b6118ad84611849565b92506118bb60208501611849565b9150604084013590509250925092565b6000602082840312156118dd57600080fd5b610da382611849565b634e487b7160e01b600052604160045260246000fd5b600067ffffffffffffffff80841115611917576119176118e6565b604051601f8501601f19908116603f0116810190828211818310171561193f5761193f6118e6565b8160405280935085815286868601111561195857600080fd5b858560208301376000602087830101525050509392505050565b60006020828403121561198457600080fd5b813567ffffffffffffffff81111561199b57600080fd5b8201601f810184136119ac57600080fd5b610f76848235602084016118fc565b600080604083850312156119ce57600080fd5b6119d783611849565b9150602083013580151581146119ec57600080fd5b809150509250929050565b60008060008060808587031215611a0d57600080fd5b611a1685611849565b9350611a2460208601611849565b925060408501359150606085013567ffffffffffffffff811115611a4757600080fd5b8501601f81018713611a5857600080fd5b611a67878235602084016118fc565b91505092959194509250565b60008060408385031215611a8657600080fd5b611a8f83611849565b9150611a9d60208401611849565b90509250929050565b600181811c90821680611aba57607f821691505b60208210811415611adb57634e487b7160e01b600052602260045260246000fd5b50919050565b6020808252602d908201527f4552433732313a2063616c6c6572206973206e6f7420746f6b656e206f776e6560408201526c1c881bdc88185c1c1c9bdd9959609a1b606082015260800190565b634e487b7160e01b600052601160045260246000fd5b6000816000190483118215151615611b5e57611b5e611b2e565b500290565b600082611b8057634e487b7160e01b600052601260045260246000fd5b500490565b60008219821115611b9857611b98611b2e565b500190565b6000600019821415611bb157611bb1611b2e565b5060010190565b600084516020611bcb8285838a016117c5565b855191840191611bde8184848a016117c5565b8554920191600090600181811c9080831680611bfb57607f831692505b858310811415611c1957634e487b7160e01b85526022600452602485fd5b808015611c2d5760018114611c3e57611c6b565b60ff19851688528388019550611c6b565b60008b81526020902060005b85811015611c635781548a820152908401908801611c4a565b505083880195505b50939b9a5050505050505050505050565b60208082526025908201527f4552433732313a207472616e736665722066726f6d20696e636f72726563742060408201526437bbb732b960d91b606082015260800190565b60208082526032908201527f4552433732313a207472616e7366657220746f206e6f6e20455243373231526560408201527131b2b4bb32b91034b6b83632b6b2b73a32b960711b606082015260800190565b6001600160a01b0385811682528416602082015260408101839052608060608201819052600090611d46908301846117f1565b9695505050505050565b600060208284031215611d6257600080fd5b8151610da38161179256fea2646970667358221220c1524e3a40e753a2a19f631cf36dbde2309a954df8f0edbd42ac4eedf394bf0464736f6c634300080900334552433732313a207472616e7366657220746f206e6f6e204552433732315265697066733a2f2f6261667962656968366e787579716d72647274657778656d7676666674346268696234756c656575377a3261377833756a697833746b726e6274612f",
	"linkReferences": {},
	"deployedLinkReferences": {}
}